:400000000080002011000000B5050000B505000080B500AF024A034B1B68136000F0D4FABC760040FA46004010B5054C237833B9044B13B10448AFF300800123237010BDD5
:400040007081FF1F00000000C43F0000084B10B51BB108490848AFF300800848036803B910BD074B002BFBD0BDE81040184700BF000000007481FF1FC43F0000C880FF1FAC
:400080000000000080B500AF41F6FF734FF480420121022002F050FD03461A462B4B1A7003F092FD03461A46294B1A70284B1878274B1A7806233E2103F0B4FD244B1B7824
:4000C000244A92B244F61061184603F0EBFD1F4B1A781F4B1B781946104603F007FD1B4B1B780121184603F0EDFB62B60021002000F058FB00BF00F02FFD0346002BFAD0BC
:4001000001F01CF83E221349022000F023FE02F07FFE03F0B7FA00F0EDFA02F091FE0E4B1B78002BFBD002F09BFE01F05BF80346002BF4D03E220021022000F00BFE064B8A
:4001400000221A7002F07CFEE9E700BFE181FF1FE081FF1F9081FF1F8C81FF1F80B582B000AF786039603A680021786803F021FF00BF0837BD4680BD80B584B000AFF86094
:40018000B9607A607A68B968F86803F007FF00BF1037BD4680BD00BF80B483B000AF0346FB71FEE780B487B000AF7860396000233B6100237B6127E07B699B007A68134433
:4001C0001B68BB60BB68FB73BB6823F0FF03BB6014E03B695B003A6813441B781A46BB68134419463B695B003A6813445B780B703B6901333B61FB7B013BFB73FB7B002B4A
:40020000E7D17B6901337B617B691A2BD4D900BF1C37BD4680BC704780B582B000AF3C4B00221A803B4B50221A7004223A493B48FFF7A2FF3A4B06221A703A4B52221A70DC
:40024000394B3A4A1278D2B21A70394B4FF4E1621A80384B41F251221A800023FB7019237B6014E0FB785B00DAB2334B1B78DBB203F00103DBB21343DBB203F00303FB701B
:400280004FF4F07003F00CFE7B68013B7B607B68002B02D0FB78032BE4D17B68002B02D10320FFF779FF254B4FF480721A80234B07221A70224B00221A70224B48221A7022
:4002C0001E4B00221A70204B00221A701F4B02221A701F4B04221A701E4A1E4B1B78DBB243F00103DBB213701B4A1B4B1B78DBB243F00103DBB21370184A184B1B78DBB251
:4003000063F07F03DBB2137000BF0837BD4680BD804000408240004094010048004100400043004000420040A14600400F0100492242004020420040254200400440004044
:40034000064000400840004009400040014000400B400040A2430040A1430040A043004080B483B000AF0E4B1B78FB710D4AFB7903F00703DBB213700B4AFB791B09DBB2AE
:4003800013700A4B04221A70094B40221A70094B44221A7000BF0C37BD4680BC704700BFCF0100496E5800406F5800400D510040005B00407658004080B483B000AF0346AE
:4003C000FB71FB79012B0ED8FB79094A52F82330FA79074951F822201178FA790548825C0A43D2B21A7000BF0C37BD4680BC7047C83F0000D03F000080B483B000AF03466A
:40040000FB71FB79012B10D8FB790A4A52F82330FA79084951F822201178FA790648825CD243D2B20A40D2B21A7000BF0C37BD4680BC7047C83F0000D03F000080B582B086
:4004400000AF72B6434A434B1B78DBB243F00403DBB213700023FB7113E0FA7913465B0013445B003C4A13443B603B681A683B689B889BB219461046FFF770FEFB79013354
:40048000FB71FB79062BE8D934494FF09040FFF789FE334B0A221A7004213248FFF75EFE042231493148FFF767FE042230493148FFF762FE042230493048FFF75DFE304A78
:4004C0002F4B1B78DBB243F00203DBB213702D4A2C4B1B78DBB243F00203DBB213702A4A294B1B78DBB243F04003DBB21370274A264B1B78DBB243F01003DBB213700822B4
:4005000023492448FFF738FE0A2223492348FFF733FE082222492348FFF72EFE224A224B1B78DBB243F00803DBB213701F4B61221A70FFF771FE1D4B81221A70FFF710FFAE
:400540000E2211491A48FFF717FE00BF0837BD4680BD00BFE8460040D43F00006C000048835800400076004098010048507600409C01004808760040A00100481076004048
:400580000350014013500140A0430040C2430040780100480251004080010048F05100408C010048125100402243004000480040B043004080B500AF03F0C4FC03461B68C2
:4005C0000C2B00D1FEE7FEE780B586B000AF224B7B61224B3B61204B7B6135E03B691B68FB603B695B68BB603B699B683B6000237B600CE0FB681A68BB681A60BB68043355
:40060000BB60FB680433FB607B6804337B607A683B689A42EED13B69DB683B6000237B6008E0BB6800221A60BB680433BB607B6804337B607A683B689A42F2D13B691033F9
:400640003B617B69013B7B617B69002BC6D103F07FFCFFF717FDFEE701000000EC41000080B582B000AF194B194A1A60194A194B1B6843F40073136000237B600FE07B6823
:40068000032B04D8144A7B6852F8233000E0134B13497A6841F822307B6801337B607B682F2BECD90F4B1B78DAB20F4B1A700F4B0B4A1A60FFF7C2FE03F0D6F80C4B0022E1
:4006C0001A6000BF0837BD4680BD00BF0CED00E00004FA0514ED00E000000000B50500000080FF1FBC760040C480FF1F08ED00E0C080FF1F80B500AF00F048F8044800F017
:4007000015F8072000F024F800F034F800BF80BD1507000080B400AF034B01221A7000BFBD4680BC704700BF8C81FF1F80B485B000AF7860054B1B68FB60FB6840337A68F2
:400740001A6000BF1437BD4680BC704708ED00E080B483B000AF0346FB71054AFB795B01DBB2137000BF0C37BD4680BC704700BF00E400E080B400AF034B01221A6000BF28
:40078000BD4680BC704700BF00E100E080B400AF034B01221A6000BFBD4680BC704700BF80E100E080B582B000AF03460A46FB711346BB71094B1B78002B04D100F010F8C1
:4007C000064B01221A70BA79FB791146184600F0F7F800BF0837BD4680BD00BFCE81FF1F80B582B000AF03F063FB03467B71604A5F4B1B78DBB243F00103DBB213705D4A58
:400800005C4B1B78DBB243F00103DBB213705A4B01221A70594B02221A70594A584B1B78DBB203F07F03DBB21370002003F074FA544A544B1B78DBB223F00603DBB2137011
:40084000514A514B1B78DBB223F02003DBB213704C4A4C4B1B78DBB243F00103DBB21370012003F059FA282003F056FA474A474B1B78DBB203F07F03DBB21370434A434B72
:400880001B78DBB223F04003DBB213703D4A3D4B1B78DBB243F00203DBB21370022003F03BFA384A374B1B78DBB243F00403DBB21370374B00221A70364B00221A70002305
:4008C000FB800AE0FB88344AFF21D154FB88334AFF21D154FB880133FB80FB88082BF1D97B79184603F0E8FA0721172003F050FA2B49172003F024FA0721182003F048FA42
:400900002849182003F01CFA0721152003F040FA2549152003F014FA0721022003F038FA2249022003F00CFA0721032003F030FA1F49032003F004FA0721042003F028FA9D
:400940001C49042003F0FCF90021162003F020FA1949162003F0F4F907210C2003F018FA16490C2003F0ECF900BF0837BD4680BDA5430040B54300409D60004009600040EA
:40098000106000409443004012600040F851004084600040856000402C82FF1F0882FF1FB119000099120000A5190000BD1800000519000051190000BD190000991B00005E
:4009C00080B582B000AF03460A46FB711346BB71374AFB791370374B00221A70364B00221A70364B00221A70354B00221A70354B00221A70344B00221A70344B00221A70A9
:400A0000334B4FF400021A60314B4FF080721A602F4B4FF400121A602D4B04221A602C4B08221A602A4B10221A602A4B07221A70274B4FF480021A60274B50221A702748FF
:400A400002F024FC02F008FC02F07AFCBB79002B02D0012B09D011E0214A214B1B78DBB223F00103DBB2137011E01D4A1C4B1B78DBB243F00103DBB2137008E0184A184BEE
:400A80001B78DBB243F00103DBB2137000BF154B03221A70144B80221A70012003F000FA124B04221A7000BF0837BD4680BD00BF6582FF1F6882FF1F8482FF1F8782FF1F06
:400AC0007C82FF1F8682FF1F8982FF1F6482FF1F00E100E09E6000409C600040BD1A00000960004028600040086000401260004080B400AF0F4B00221A700F4B00221A70BB
:400B00000E4B00221A700E4B00221A700D4B00221A700D4B00221A700C4B00221A700C4B03221A700B4B80221A7000BFBD4680BC704700BF6882FF1F8482FF1F8782FF1F51
:400B40007C82FF1F8682FF1F8982FF1F6482FF1F286000400860004080B400AF034B1B78DBB21846BD4680BC704700BF8782FF1F80B483B000AF0346FB71FA790649134625
:400B80005B0013449B000B4401331B78DBB218460C37BD4680BC70478C82FF1F90B585B000AF03463960FB71FA792E4913465B0013449B000B4404331B78DBB25BB2002B9D
:400BC00006DA3B681B0CFB814FF48043BB8105E04FF48043FB813B681B0CBB81FB79022B10D0032B1AD0012B00D023E0FC79BB89FA890121202002F0EFFB03461A461A4B00
:400C00001A5517E0FC79BB89FA890121202002F0B1FB03461A46144B1A550BE0FC79BB89FA890121202002F0D9FA03461A460E4B1A5500BFFB79002B10D0FB79082B0DD812
:400C4000FC7902F0C1FF03461A46084B1A55FC7902F0BAFF03461A46054B1A5500BF1437BD4690BD8C82FF1F1482FF1F2C82FF1F0882FF1F80B485B000AF03460A46FB718F
:400C80001346BB71BB79002B29D1FB792B4AD35CDB0003F1804303F5F043FB60FB79284A32F813309BB2203B9AB2FB681A80FB79224AD35CDB0003F1804303F5F0430433DF
:400CC000FB60FB791F4A52F823309BB220339AB2FB681A80FB791C4A0121D1541EE0FB79164AD35CDB0003F1804303F5F043FB60FB6802221A80FB79104AD35CDB0003F10F
:400D0000804303F5F0430433FB60FB790D4A52F823309BB21E339AB2FB681A80FB790B4AD35C1A010A4B1344FA7904498A5C5A7200BF1437BD4680BC704700BF2C82FF1F28
:400D40003882FF1FE481FF1F2082FF1F1482FF1F10700040B0B582B000AF03463960FB711346BB80FB79002B00F0FE80FB79082B00F2FA807E4CF979BB881B0A9BB2D8B221
:400D8000FA797C4D13465B0013449B002B4403331B78DBB20343DAB20B0123441A70744AFB79B988C9B21B01134401330A461A70FB79714AD35CFF2B04D1FB79396818467E
:400DC000FFF7ECFE3B68002B5DD0FB796B4AD35C184602F0BDFDFB796949BA8821F81320FB7968493A6841F82320FB79624AD05CBB88202B28BF202399B2FB79624AD25C22
:400E0000112302F00FFFFB795B4AD05C3B6899B2FB791B0103F108025C4B13449BB21A4602F040FFFB79584AD05CFB79564AD15CFB79574AD35C0A46012102F0F3FEFB7951
:400E4000514AD05C534B99B2FB791A014F4B13449BB21A4602F026FFFB79484AD35C184602F0A6FDFB79454AD05CFB79424AD35C194602F03BFEFB79404AD35C01211846C1
:400E800002F020FD70E0FA793A4913465B0013449B000B44013300221A70BB88002B53D0FB793749BA8821F81320FB793A4A0021D154FB79314AD35C184602F049FDFB798F
:400EC0002D4AD05CBB88202B28BF202399B2FB792D4AD25C112302F0A5FEFB79264AD05CFB79284A52F8233099B2FB791B0103F10802264B13449BB21A4602F0D3FEFB7952
:400F00001E4AD35C184602F053FDFB791B4AD05CFB79194AD35C194602F0E8FDFB79174AD35C0121184602F0CDFC1849FB791748FA79120102441278D2B242F00102D2B233
:400F40001B010B441A700FE00948F979FA79094C13465B0013449B00234405331B78DAB20B01034402331A7000BF0837BD46B0BDFC5F00408C82FF1F2C82FF1F1482FF1FD7
:400F80003882FF1FE481FF1F0882FF1F7060004000400000CC80FF1F2082FF1F90B482B000AF0346FB71FB79002B1CD0FB79082B19D8FA790E4913465B0013449B000B44F8
:400FC000013300221A700B48F979FA79084C13465B0013449B00234405331B78DAB20B01034402331A7000BF0837BD4690BC70478C82FF1FFC5F004080B582B000AF00230B
:40100000FB71314B1B79DBB2184600F067F80346BB712D4B1B78DBB25BB2002B15DA2A4B5B78DBB2212B00D048E0284B07221A80BA791346DB009B1A254A1344234A536075
:4010400000F0A4FA0346FB7138E01F4B5B78DBB2202B02D0222B1AD030E01C4B07221A80BA791346DB009B1A194A1344174A5360BB79BA7917498A5CD2B242F00102D1B2EA
:40108000144AD15400F000FB0346FB7116E0BB790D4A9278D2B291B20F4A22F81310BB79BA790C498A5CD2B242F00202D1B2094AD15400F087FB0346FB7100BFFB79184616
:4010C0000837BD4680BD00BF006000407082FF1FD080FF1F4C82FF1F6082FF1F80B485B000AF0346FB710023FB73FF23BB7317E0FB7B104AD35C7B737A7B0F4913465B0015
:4011000013449B000B440A331B78DBB2FA799A4203D1FB7BBB730223FB73FB7B0133FB73FB7B012BE4D9BB7B18461437BD4680BC704700BF5482FF1F8C82FF1F80B582B025
:4011400000AF0023BB71224B00221A70214B00221A70204B00225A700023FB7110E0FB791D4AD35C7B717B79002B06D07B79082B03D87B791846FFF711FFFB790133FB7111
:40118000FB79012BEBD9154B1B78DBB2002B18D0114B1B78DBB2002B13D0114B1B78DBB2002B0ED00D4B1B78DBB2082B09D80A4B1B78DBB2082B04D8094B1B78DBB2082B72
:4011C00001D90123BB71BB7918460837BD4680BDCF81FF1F4C82FF1F5882FF1F5082FF1F5482FF1F80B500AF054B1B781A46054B9B5CDBB21846FFF7BBFC0346184680BD94
:40120000CF81FF1F5082FF1F80B485B000AF78600B46FB701346BB707B68DB7803F00303FB737B689B785BB2002B1ADAFB7B032B0AD0BB7803F001031449FA78CA54BB7899
:4012400043F00103BB701BE0BB789B08DBB203F001030F49FA78CA54BB7843F00403BB700EE0FB7B032B0BD0BB785B08DBB203F001030849FA78CA54BB7843F00203BB7039
:40128000BB7818461437BD4680BC70475082FF1F5482FF1F5882FF1F80B582B000AF374B1B78BB71BB7903F01003002B62D00123FB7197F90630002B12DABB7903F00F03EC
:4012C000012B02D00023FB711CE000F061F82C4B1B78DBB25BB2002B14DA0023FB7111E0BB7903F04003002B02D000F095F809E0BB7903F02003002B02D000F0B3F801E04F
:401300000023FB71FB79002B34D01C4B1B78BB7197F90630002B2DDB1A4B1B78DAB21A4B1B78DBB21343BB71184ABB791370174B1B78DBB2BA799A421CD1114B1B78FB71DF
:401340000E4B1B78DBB223F07F03BB71BB79002B0AD10A4B0A4A1278D2B21A70074B1B78DBB203F00F03FB71054B1B78DBB2FA799A42E2D100BF0837BD4680BD286000405D
:401380008582FF1FFA82FF1F8882FF1F2960004080B582B000AF1D4B1B78FB711B4AFB7913701A4B1B78FB7197F90730002B03DA174AFB79137025E0022000F045FA154B63
:4013C0001B78DBB203F06003202B08D0402B0BD0002B0ED100F0E6FB0346FB710CE002F06FFD0346FB7107E001F07CFB0346FB7102E00023FB7100BFFB79002B02D1044B8A
:4014000003221A7000BF0837BD4680BD286000408582FF1F0060004080B500AF104B1B78DBB2062B19D801A252F823F05B1400005B140000491400005B1400004F140000A4
:401440005B1400005514000000F0F8F806E000F0A7F903E000F0D2F900E000BF00BF80BD6882FF1F80B500AF124B1B78DBB2062B1DD801A252F823F0AF140000AF140000F0
:4014800095140000AF1400009B140000AF140000A114000000F0D8F80AE000F027F907E0032000F0D1F9044B03221A7000E000BF00BF80BD6882FF1F8582FF1F80B483B0EE
:4014C00000AF0023FB71294B1B78DBB29AB2284B1B889BB213449AB2254B1A8015E02549FB79254A52681278D2B2CA54224B5B680133214A5360FB790133FB711E4B1B88F0
:401500009BB2013B9AB21C4B1A801B4B1B889BB2002B02D0FB79072BE1D9144B1B78DBB2082B02D0FB79002B0FD0144B1B78DBB283F07F03DB43DAB2104B1A70104B0F2291
:401540001A70104B02221A7005E00D4B02221A700C4B02221A700C4AFB791370034AFB79137000BF0C37BD4680BC70476482FF1F6682FF1F006000407082FF1FFA82FF1F0B
:401580008582FF1F6882FF1F8882FF1F80B582B000AF164B1B889BB2002B02D100F02EF81EE0134B02221A70124B00221A7000F06BF9114BDB79DBB29BB21B029AB20E4BA8
:4015C0009B79DBB29BB21343FB80084B1B889BB2FA889A4202D2054AFB881380FFF76EFF012318460837BD4680BD00BF7082FF1F6882FF1FFA82FF1F0060004080B400AFFA
:40160000094B02221A70094B80221A70084B0F221A70084B00221A70074B00221A7001231846BD4680BC70476882FF1FFA82FF1F8582FF1F6482FF1F8882FF1F80B500AFCE
:40164000FFF73CFF00BF80BD80B500AF0A4B1B78DBB29AB2094B1B889BB213449AB2074B1A80074B00221A70012000F0EDF8054B03221A7000BF80BD6482FF1F6682FF1FCC
:401680006882FF1F8582FF1F80B582B000AF124B04221A70114B80221A7000F0F5F8104BDB79DBB29BB21B029AB20D4B9B79DBB29BB21343FB800B4B1B889BB2FA889A42C8
:4016C00002D2084AFB881380074B0B221A70012318460837BD4680BD6882FF1FFA82FF1F006000407082FF1F8582FF1F80B483B000AF0023BB71234B1B78DBB203F00F0335
:40170000DBB2023BFB71FB799AB21F4B1B889BB213449AB21C4B1A8018E01C4B5B681C49BA798A5CD2B21A70184B5B680133174A5360BB790133BB71FB79013BFB71134B8B
:401740001B889BB2013B9AB2104B1A800F4B1B889BB2002B02D0FB79002BDED10D4AFB7913700D4B1B78DBB283F07F03DB43DAB2094B1A70094B0B221A7000BF0C37BD4614
:4017800080BC7047296000406682FF1F7082FF1F006000408882FF1FFA82FF1F8582FF1F80B500AF054B00221A70012000F04CF8034B03221A7000BF80BD00BF6882FF1FDB
:4017C0008582FF1F80B400AF084B06221A70084B06221A70074B80221A70074B00221A7001231846BD4680BC704700BF6882FF1F8582FF1FFA82FF1F8882FF1F80B500AF51
:401800000D4B1B78DBB2002B0AD00C4A0A4B1B78DBB263F07F03DBB21370074B00221A70074B00221A70012000F00EF8054B03221A7000BF80BD00BF8682FF1F08600040E0
:401840006882FF1F8582FF1F80B483B000AF0346FB710B4B9B68002B0CD0094B9B68FA791A70074B9B68074A128892B25A80044B00229A6000BF0C37BD4680BC704700BF3C
:401880007082FF1F6682FF1F80B400AF094B00221A80094B9B68002B07D0074B9B6800221A70054B9B6800225A8000BFBD4680BC704700BF6682FF1F7082FF1F80B400AF09
:4018C0000D4B01221A700D4B9B7C0D4B1B7BDBB203F00303012B08D0094BDB7BDBB283F07F03DB43DAB2064BDA73054B01225A7300BFBD4680BC70470B600040FC5F00404D
:401900008C82FF1F80B400AF0E4B02221A700E4B93F822300D4B1B7EDBB203F00303012B08D00A4BDB7EDBB283F07F03DB43DAB2064BDA76054B01225A7600BFBD4680BC24
:40194000704700BF0B600040FC5F00408C82FF1F80B400AF104B04221A70104B93F832300F4B93F82430DBB203F00303012B0AD00B4B93F82730DBB283F07F03DB43DAB220
:40198000074B83F82720064B012283F8252000BFBD4680BC704700BF0B600040FC5F00408C82FF1F80B400AF00BFBD4680BC704780B500AFFFF79CF800BF80BD90B583B07F
:4019C00000AF0123BB71374B1B78FB7162E0FB7903F00103002B57D0334ABB791B01134402331B78DAB23049BB791B010B4401331B78DBB213407B717B7903F00103002B2F
:401A00003BD0BA79294913465B0013449B000B4404331B78DBB25BB2002B2EDA2249BB792148BA79120102441278D2B222F00102D2B21B010B441A70BB791D4A32F8133032
:401A40009BB2202B05D9BB7900211846FFF712F903E0BB79174A0121D1541748B979BA79124C13465B0013449B00234405331B78DAB20B01034402331A700B4ABB791B0140
:401A8000134402337A791A70BB790133BB71FB795B08FB71FB79002B99D100BF0C37BD4690BD00BF9F600040706000408C82FF1F3882FF1F2082FF1FFC5F004080B582B017
:401AC00000AF01237B7101F0BBFB034603F07F03BB7101F029FC034603F00303FB7150E0BB7903F00103002B36D0294A7B791B01134402331B783B713B7903F00103002B22
:401B00002AD17B79234AD35CDBB2002B24D1204A7B791B011344053300221A701C497B797A795201D2B2023AD2B21B010B4404331A707B7901211846FFF79CF814497B795A
:401B400013487A79120102441278D2B242F00102D2B21B010B441A707B7901337B71BB795B08BB71BB79002BBAD1FB795B08FB71FB79002B05D008237B71FB7903F0010308
:401B8000BB71FB79002BEDD100BF0837BD4680BD706000402082FF1F80B500AF01F04EFC00BF80BD80B586B000AF0023FB759D4B1B78FB7100233B619B4B00221A8097F9EE
:401BC0000730002B80F20481964B5B78DBB20A2B00F21B8201A252F823F000BF271D00000B2000000B2000000B2000000B2000000B200000091C00000B2000009B1D0000A5
:401C00000B200000B11D0000864BDB78DBB2012B0ED100F0D7FDB860BB685B68824A5360814B12221A80FFF7B1FC0346FB75EEE17C4BDB78DBB2022B25D17A4B9B78DBB2BA
:401C4000184600F097FDB860BB68002B00F0DF81BB685B68744A5360734B5B6803331B78DBB29BB21B029AB26F4B5B6802331B78DBB29BB213439AB26B4B1A80FFF786FC5F
:401C80000346FB75C3E1674BDB78DBB2032B45D10023FB73654B3B6109E03B691B78BB71BB793A6913443B61FB7B0133FB735D4B9B78DBB2FA7B9A4204D23B691B78DBB2B3
:401CC000002BEAD1574B9B78DBB2EE2B01D1584B3B61544B9B78DBB2002B0BD0514B9B78DAB2544B1B7C9A4204D1534800F0ACF9514B3B613B691B78DBB2002B00F08781DC
:401D00003B691B78DBB29AB2474B1A80464A3B695360FFF73BFC0346FB7578E102F0D0F80346FB7573E1FB7903F00303002B20D0022B00D030E03C4B02221A80394B1B7988
:401D4000DBB203F07F023D4913465B0013449B000B4402331B78DAB2394B1A70384B00225A70314B364A5A60FFF710FC0346FB7512E02D4B02221A80324B1B78DAB2304B66
:401D80001A702F4B00225A70274B2D4A5A60FFF7FDFB0346FB7500BF40E1234B01221A80214B294A5A60FFF7F1FB0346FB7535E11D4B01221A801B4B1B79DBB21A46234B1A
:401DC0001344194A5360FFF7E1FB0346FB7525E1144B5B78DBB2013B0A2B00F21A8101A252F823F0EF1E0000132000007D1F000013200000111E0000132000001320000084
:401E000013200000551E000013200000AB1E0000044B9B78DAB20E4B1A70FFF7D3FC0346FB75FBE0006000407082FF1F8040000088410000204000000483FF1F8C82FF1F6C
:401E4000D081FF1F8982FF1F8782FF1FF882FF1F8682FF1F744B9B787B717B79002B06D07B79013BDBB2184600F084FCB8607B79002B02D0BB68002B03D17B79002B40F02D
:401E8000CA806A4B1B78DBB27A799A4208D0674A7B791370664B01221A70012000F0D2F9FFF790FC0346FB75B5E000F0E3FD0346002B00F0B2805C4B1B793B715A4B1B79A4
:401EC000DAB25C4B1A703B795B4AD35CDAB23B795A49CB5CDBB29A4204D0554B01221A7000F030FBFFF76EFC0346FB7595E0FB7903F00303012B20D0012B0CD3022B00D0CF
:401F00003BE0494B9B78DBB2002B31D100F006FD0346FB752CE0444B9B78DBB2012B29D1474B1B78DBB223F00203DAB2444B1A70FFF748FC0346FB751CE03B4B1B79DBB213
:401F4000012B19D8384B9B78DBB2DB43DBB2364A1279D2B2114610463A4A125CD2B21340DAB2384B5A54FFF72DFC0346FB7503E000BF53E000BF51E000BF4FE0FB7903F0C2
:401F80000303012B20D0012B0CD3022B00D03BE0254B9B78DBB2002B31D100F04BFC0346FB752CE0204B9B78DBB2012B29D1244B1B78DBB243F00203DAB2214B1A70FFF733
:401FC00001FC0346FB751CE0174B1B79DBB2012B19D8154B9B78DBB2DB43DBB2124A1279D2B211461046174A125CD2B21340DAB2144B5A54FFF7E6FB0346FB7503E000BF5B
:402000000CE000BF0AE000BF08E000BF06E000BF04E000BF02E000BF00E000BFFB7D18461837BD4680BD00BF006000408782FF1F8482FF1F7C82FF1F6C82FF1FF882FF1F4E
:402040008982FF1FFC82FF1FB0B58AB000AF7860324B07F114041D460FCD0FC42B682370002387F826307B68002B52D07B6822221A707B68013303221A7007F10C031846AC
:4020800001F0AAFE022387F827303EE097F827307A68134497F8262007F128010A4412F81C2C1209D2B207F128010A4412F8142C1A7097F8273001337A68134400221A70D8
:4020C00097F8273002337A68134497F8262007F128010A4412F81C2C02F00F0207F128010A4412F8142C1A7097F8273003337A68134400221A7097F82630013387F82630C1
:4021000097F82730043387F8273097F82730212BBCD900BF2837BD46B0BD00BF0C40000080B483B000AF0023BB710123FB714AE03A4AFB791B0113440C221A70374AFB7915
:402140001B01134401331D221A70FA79344913465B0013449B000B4405331B78DBB2002B27D0FA792E4913465B0013449B000B4404331B78DBB25BB2002B07DA294AFB795A
:402180001B01134402330C221A7019E0254AFB791B011344023308221A70FB79013B012202FA03F35AB297F9063013435BB2BB7106E01C4AFB791B011344023380221A70CD
:4021C000FB790133FB71FB79082BB1D9164B55221A70164B20221A70154B00221A70154B07221A70144ABB791370144A134B1B78DBB263F07F03DBB21370104A0F4B1B78CF
:40220000DBB203F07F03DBB213700D4BFF221A7000BF0C37BD4680BC704700BF706000408C82FF1FFC5F00408C600040BC600040BD6000408E6000408F6000409C6000407D
:402240000A60004080B588B000AF0346FB710023FB7747E0FA7FB54913465B0013449B000B4400221A70FA7FB04913465B0013449B000B44023300221A70FA7FAB49134601
:402280005B0013449B000B44033300221A70FA7FA64913465B0013449B000B44083300221A80FA7FA14913465B0013449B000B440A3300221A70FA7F9C4913465B001344A2
:4022C0009B000B44013300221A70FA7F974913465B0013449B000B44053300221A70FB7F0133FB77FB7F082BB4D9FB79002B10D000237B770AE07B7F8D4A0021D1547B7FF9
:402300008C4A0021D1547B7F01337B777B7F012BF1D9894B1B78DBB2002B00F002810023FB75854B1B78DBB2013BDBB2184600F021FA38613B695B68FB60FB6807331B789F
:4023400003F04003002B08D07C4B1B78DBB243F00103DAB2794B1A7007E0784B1B78DBB223F00103DAB2754B1A703B6908333B613B691B78FB7701237B77A8E03B695B684C
:40238000BB610023BB7798E07A7FBB699B7803F07F039A4240F08B807A7F644913465B0013449B000B4408331B889AB2BB699B889A420BD27A7FBB6998885C4913465B001D
:4023C00013449B000B44083302461A80BB691B781A46574B9B5CDAB2BB695B789A4266D17A7FBB699878514913465B0013449B000B44043302461A707A7FBB69D8784B4973
:4024000013465B0013449B000B4402461A70BB69DB7803F00303FB72BB699B785BB2002B1ADA7A7FFB7A012B01D1072000E00D203E4913465B0013449B000B4405330246F9
:402440001A707A7F394913465B0013449B000B44013301221A7019E07A7FFB7A012B01D1052000E00920314913465B0013449B000B44053302461A707A7F2C4913465B0053
:4024800013449B000B44013300221A70BB699B790A2B03D0BB699B79022B14D1FA7D7B7F1946B869FEF7B0FE0346FB750BE0BB690833BB61BB7F0133BB77BA7FFB7F9A428F
:4024C000FFF462AF00E000BF7B7F01337B777B7F082B7FF653AF3B695B68BB6100237B7714E0BB699B7803F07F02BB6918780F4913465B0013449B000B440A3302461A702E
:40250000BB690833BB617B7F01337B777A7FFB7F9A42E6D300F068F90246094B1A60FFF7FFFD00BF2037BD4680BD00BF8C82FF1FF882FF1F6C82FF1F8782FF1F8982FF1F6A
:402540008082FF1F80B584B000AF824B1B78DBB2002B00F0FB807F4B1B78DBB2013BDBB2184600F007F978607B6808337B607B681B78FB707B685B68BB60774B1B78BB70AC
:402580000023FB73DDE0BB681B78BA789A4240F0D280BB78714AD35CDAB2BB685B789A4240F0C980BB689B7803F07F037B70BB68DB7803F003033B707A78694913465B008B
:4025C00013449B000B44033300221A707A78BB689878634913465B0013449B000B44043302461A707A78BB68D8785D4913465B0013449B000B4402461A707A78BB689888E2
:40260000574913465B0013449B000B44083302461A80BB689B785BB2002B1ADA7A783B78012B01D1072000E00D204D4913465B0013449B000B44053302461A707A78484997
:4026400013465B0013449B000B44013301221A7019E07A783B78012B01D1052000E009203F4913465B0013449B000B44053302461A707A783A4913465B0013449B000B44C9
:40268000013300221A70374A7B781B011344023301221A7034497B7833487A78120102441278D2B222F00102D2B21B010B441A702E4A7B78013BDBB25B00DBB213702B4A8B
:4026C0002A4B1B78DBB243F00103DBB2137000BF264B1B78DBB203F01003002BF8D0BB689B785BB2002B0FDA2149214B1B78DAB27B78013B012000FA03F3DBB2DB43DBB2F1
:402700001340DBB20B700EE01949194B1B78DBB25AB27B78013B012000FA03F35BB213435BB2DBB20B70114A104B1B78DBB223F00103DBB21370BB680833BB60FB7B013386
:40274000FB73FA7BFB789A42FFF41DAF00BF1037BD4680BD8782FF1F7C82FF1FF882FF1F8C82FF1FFC5F004070600040146000408F60004080B485B000AF0346FB710F4B66
:402780001B78DBB20E4ADB0013445B68FB60FB681033FB60FB681B78FA799A4202D30023FB6005E0FB79DB00FA6813445B68FB60FB6818461437BD4680BC70476582FF1FA6
:4027C0008041000080B400AF054B1B78DBB2054ADB0013445B681846BD4680BC704700BF6582FF1F8041000080B584B000AF104B1B78DBB2013BDBB21846FFF7BBFFB86026
:40280000BB68002B0DD0BB685B681B79FB71FB790233DB00BA681344BB60BB685B68FB6001E00023FB60FB6818461037BD4680BD8782FF1F80B582B000AF0023FB71344B3C
:402840001B79DBB203F07F03BB71BB79002B5AD0BB79082B57D8BA79B9792E480B465B000B449B00034402331B78DBB243F00103D8B2284913465B0013449B000B4402330E
:4028800002461A70BA79234913465B0013449B000B44033300221A70BA79B9791D480B465B000B449B00034401331B78DBB243F00203D8B2174913465B0013449B000B44BE
:4028C000013302461A70BA79124913465B0013449B000B4404331B78DBB25BB2002B07DA0D4ABB791B01134402338D221A7006E0094ABB791B011344023389221A70FEF734
:4029000061FF0346FB71FB7918460837BD4680BD006000408C82FF1FFC5F004080B582B000AF0023FB71504B1B79DBB203F07F03BB71BB79002B00F09280BB79082B00F20E
:402940008E80BA79B97949480B465B000B449B00034402331B78DBB223F00103D8B2434913465B0013449B000B44023302461A70BA793E4913465B0013449B000B44033313
:4029800000221A703A49BB793948BA79120102441278D2B202F07F02D2B21B010B441A70BA79B97931480B465B000B449B00034401331B78DBB223F00203D8B22B4913462F
:4029C0005B0013449B000B44013302461A70BA79264913465B0013449B000B4404331B78DBB25BB2002B1BDABA79204913465B0013449B000B4401331B78DBB2012B07D131
:402A00001B4ABB791B01134402330C221A7022E0174ABB791B01134402330D221A701AE0BA79124913465B0013449B000B4401331B78DBB2012B07D10D4ABB791B011344D2
:402A4000023308221A7006E0094ABB791B011344023309221A70FEF7B5FE0346FB71FB7918460837BD4680BD006000408C82FF1FFC5F004080B584B000AF0023FB73154B85
:402A80001B79BB73144B1B78DBB2013BDBB21846FFF770FEB860BB685B681B79FB71BA7BFB799A4202D9BB7B022B0ED8BB7BBA7B0A498A5CD1B20A4AD154BB7B054A927874
:402AC000D1B2064AD1540123FB73FB7B18461037BD4680BD006000408782FF1FF882FF1F6C82FF1F80B582B000AF0023FB710F4B1B78DBB25BB2002B12DA0C4B5B78DBB28C
:402B0000012B00D00CE00A4B0A4A5A60094B1B789AB2074B1A80FEF739FD0346FB7100BFFB7918460837BD4680BD00BF006000407082FF1F9C41000090B585B002AF04467A
:402B4000084611461A462346FB710346BB710B46BB8013467B80104B0A221A700E4B1878BA79F97900230193002300930A2300F0DBFF094B1B787A88B988184600F07AFF32
:402B8000054B1B780221184600F042FF024B1B7818460C37BD4690BDEA80FF1F80B582B002AF324B01221A70314B00221A70102000F040FD102000F02FFE07211D2001F0BD
:402BC000E7F82C4B04221A702B4B00221A702B4B00221A702A4A2A4B1B78DBB243F01803DBB21370274B00221A70274B00221A70264B00221A70264B0A221A70254B002212
:402C00001A70254B00221A70244B5B221A70244B5E221A70234B00221A70234B14221A700123009310234FF4004248F6F051022000F0D8F91D4A0D4B1B78DBB2013B1C4966
:402C40009B000B449B7813701A4A084B1B78DBB2013B174931F823301380044B1B78DBB2184600F00DF900BFBD4680BDEB80FF1FD481FF1F96580040975800409E58004001
:402C8000075B004093580040885B0040895B004080580040815800408358004088580040895800408D580040014E00400E4E0040DC81FF1F0C4E004080B582B000AF01F007
:402CC000F7F80346FB71444B1B78BB71434A434B1B78DBB243F00103DBB213703F4A3F4B1B78DBB243F01003DBB213703C4A3C4B1B78DBB243F00103DBB21370384A384B5E
:402D00001B78DBB243F01003DBB21370354A354B1B78DBB243F00203DBB21370324A324B1B78DBB243F00203DBB213702F4A2F4B1B78DBB243F00303DBB21370032000F0E6
:402D4000EBFF284A274B1B78DBB223F00203DBB21370254A244B1B78DBB223F00203DBB21370234A224B1B78DBB243F00603DBB21370204B7A221A701F4A1F4B1B78DBB24D
:402D800043F00103DBB213701C4A1C4B1B78DBB243F00103DBB21370194A194B1B78DBB243F00103DBB21370164A164B1B78DBB243F00103DBB21370134B4FF000521A60D9
:402DC000124B4FF000521A60FB79184601F074F800BF0837BD4680BDEB80FF1FAA430040BA430040F8460040F9460040915800407758004082580040A1430040B143004064
:402E0000A2430040B243004080E200E000E100E080B500AF084B1B78002B09D1074B1B78DBB2002B01D1FFF7B9FE034B01221A70FFF742FF00BF80BDD681FF1FD781FF1F31
:402E400080B400AF054A054B1B78DBB243F00103DBB2137000BFBD4680BC7047004E004080B400AF054A054B1B78DBB223F00103DBB2137000BFBD4680BC7047004E00401A
:402E800080B582B000AF0346FB71384B00221A70FB79012B66D1364B38221A70354B04221A70354B06221A70344B00221A70344B00221A70334B3F221A70334B00221A7091
:402EC000324B00221A70324B00221A70314B01221A70314B50221A70304B0A221A70304B2C221A702F4B00221A702F4B44221A702E4B48221A702E4B01221A702D4B00229E
:402F00001A702D4B00221A702C4B0A221A702C4B43221A70522000F01DF92A4B58221A70294B00221A70294B05221A70284B02221A70284B00221A70274B00221A7000209C
:402F400000F0A6FA254B43F233321A600121052000F0B2FA0121BA2000F0A0FB20491D2000F0EEFE00BF0837BD4680BDD581FF1F004E0040024E0040034E0040044E00405E
:402F8000054E0040064E0040084E0040094E00400A4E0040144E0040845800408558004086580040875800408A5800408B5800408C5800408E5800408F580040905800402F
:402FC0009158004094580040955800409A5800409B5800409C5800409D5800400083FF1FD131000090B587B000AF0446084611461A462346FB710346BB800B467B80134666
:40300000BB7197F82830002B00F08B8097F82830012B00F28680FB79013B092B4AD801A252F823F04D300000B5300000B53000004D300000B5300000B53000006730000021
:4030400081300000B53000009B300000BB790F2B04D9374B1B78DBB2FB752EE0354B1B78DBB2FB7529E0BB790F2B04D9324B1B78DBB2FB7521E0314B1B78DBB2FB751CE00A
:40308000BB790F2B04D92E4B1B78DBB2FB7514E02C4B1B78DBB2FB750FE0BB790F2B04D9294B1B78DBB2FB7507E0284B1B78DBB2FB7502E00023FB7500BFBA8897F917304C
:4030C0005B0113443B617B883A6902FB03F3FB60FB68DB0BBB82BB790D2B12D8BA8ABB79C3F10E0342FA03F3BB8297F82830013BBA790132D1B2164A9B0013440A469A704D
:4031000007E097F82830013B114A9B0013440F229A7097F82830013B0D49BA8A21F8232002E0002000F0ECFD00BF1C37BD4690BD180100491C010049190100491D01004915
:403140001A0100491E0100491B0100491F010049DC81FF1F80B584B000AF0346FB7100F0A7FE0346FB73174A164B1B78DBB243F00303DBB21370144A134B1B78DBB243F0E7
:403180000303DBB21370114AFB791370032000F0C3FD0C4A0B4B1B78DBB223F00303DBB21370094A084B1B78DBB223F00303DBB21370FB7B184600F07FFE00BF1037BD46A6
:4031C00080BD00BFF8460040F94600409258004080B400AF00BFBD4680BC704790B585B002AF0446084611461A462346FB710346BB710B46BB8013467B80104B02221A7067
:403200000E4B1878BA79F9790023019300230093022300F089FC094B1B787A88B988184600F028FC054B1B780221184600F0F0FB024B1B7818460C37BD4690BDEC80FF1FC3
:4032400080B400AF034B1B78DBB21846BD4680BC704700BF6D64004080B582B000AF00F027FE0346FB71084A074B1B78DBB243F01003DBB21370FB79184600F01DFE00BF43
:403280000837BD4680BD00BF9D64004080B582B000AF786000F03CF8786800F009F8072000F018F800F028F800BF0837BD4680BD80B485B000AF7860054B1B68FB60FB68B6
:4032C00044337A681A6000BF1437BD4680BC704708ED00E080B483B000AF0346FB71054AFB795B01DBB2137000BF0C37BD4680BC704700BF01E400E080B400AF034B02225B
:403300001A6000BFBD4680BC704700BF00E100E080B400AF034B02221A6000BFBD4680BC704700BF80E100E080B400AF034B1B78DBB21846BD4680BC704700BF6C640040E6
:4033400080B582B000AF00F0B3FD0346FB71084A074B1B78DBB243F01003DBB21370FB79184600F0A9FD00BF0837BD4680BD00BF9C64004090B585B002AF04460846114609
:403380001A462346FB710346BB710B46BB8013467B80104B01221A700E4B1878BA79F9790023019300230093012300F0BDFB094B1B787A88B988184600F05CFB054B1B7802
:4033C0000221184600F024FB024B1B7818460C37BD4690BDED80FF1F90B585B002AF0446084611461A462346FB710346BB710B46BB8013467B80104B00221A700E4B18784D
:40340000BA79F9790023019300230093002300F08BFB094B1B787A88B988184600F02AFB054B1B780221184600F0F2FA024B1B7818460C37BD4690BDEE80FF1F80B400AFC4
:40344000054B1B78DBB203F040039B09DBB21846BD4680BC704700BF8F45004080B582B000AF0023FB7106E0FB791846FCF7C4FFFB790133FB71FB79012BF5D9034BFF224A
:403480001A7000BF0837BD4680BD00BFEF80FF1F80B582B000AF0346FB71FFF7DFFFFB791846FCF789FF034AFB79137000BF0837BD4680BDEF80FF1F80B584B000AF03469C
:4034C0000A46FB8013467B7100F0CEF80346FB7300F0A4F80346BB81FA88BB899A4200F08880464B1B78DBB203F00103FB72FB7B002B20D1BB89002B02D0FB88002B1AD123
:40350000BB89002B0BD13E4AFB8813803D4A3D4B1B78DBB223F04003DBB2137069E0394A384B1B78DBB243F04003DBB21370344AFB8813805DE0FB7A002B33D0324B002205
:403540001A70324B01221A70314B00221A70314A304B1B78DBB203F07F03DBB21370294B1B78DBB203F00803002B02D0FB88002B18D1294ABB891380234B07221A7000BF84
:40358000214B1B78DBB203F00103002BF8D11B4A1A4B1B78DBB223F00103DBB213701A4B00221A70154B1B78DBB203F00103002B13D0194AFB881380134A7B79002B01D027
:4035C000032300E00123137000BF0F4B1B78DBB203F00103002BF8D10BE0094AFB8813800649064B1B78DAB2FB7A1343DBB20B70FFE700BF1037BD4680BD00BFA243004004
:403600008040004082400040014000401040004014400040084000400240004080B400AF034B1B889BB21846BD4680BC704700BF8040004080B483B000AF0346FB71094988
:40364000084B1B78DBB25AB297F9073023F007035BB213435BB2DBB20B7000BF0C37BD4680BC70478240004080B400AF044B1B78DBB203F00703DBB21846BD4680BC704745
:403680008240004080B400AF034B4FF000521A6000BFBD4680BC704700E100E080B584B000AF03460A46FB8013467B7100F0CEF80346FB7300F0A4F80346BB81FA88BB89A1
:4036C0009A4200F08880464B1B78DBB203F00103FB72FB7B002B20D1BB89002B02D0FB88002B1AD1BB89002B0BD13E4AFB8813803D4A3D4B1B78DBB223F04003DBB21370F7
:4037000069E0394A384B1B78DBB243F04003DBB21370344AFB8813805DE0FB7A002B33D0324B00221A70324B01221A70314B00221A70314A304B1B78DBB203F07F03DBB28D
:403740001370294B1B78DBB203F00803002B02D0FB88002B18D1294ABB891380234B07221A7000BF214B1B78DBB203F00103002BF8D11B4A1A4B1B78DBB223F00103DBB271
:4037800013701A4B00221A70154B1B78DBB203F00103002B13D0194AFB881380134A7B79002B01D0032300E00123137000BF0F4B1B78DBB203F00103002BF8D10BE0094A1B
:4037C000FB8813800649064B1B78DAB2FB7A1343DBB20B70FFE700BF1037BD4680BD00BFA1430040004100400241004001400040144000401040004008400040024000405F
:4038000080B400AF034B1B889BB21846BD4680BC704700BF0041004080B483B000AF0346FB710949084B1B78DBB25AB297F9073023F007035BB213435BB2DBB20B7000BF1C
:403840000C37BD4680BC70470241004080B400AF044B1B78DBB203F00703DBB21846BD4680BC70470241004080B483B000AF134B7F221A70124B80221A707F23FB710CE0B7
:40388000FB79DB0003F1804303F5F043FA79013AD2B21A70FB79013BFB71FB79002BEFD1FB79DB0003F1804303F5F04300221A7000BF0C37BD4680BC704700BFF180FF1F7D
:4038C000F080FF1F80B485B000AF03460A46FB711346BB710123FB60FB79172B2FD8BB79002B0ED0FB791A01184B1344FA791101164A0A441278D2B242F02002D2B21A7033
:403900000DE0FB791A01114B1344FA7911010F4A0A441278D2B222F02002D2B21A70FB791A010A4B1344FA791101084A0A441278D2B242F00102D2B21A700023FB60FB684A
:4039400018461437BD4680BC704700BF1070004080B485B000AF0346FB710123FB60FB79172B1DD8FB791A01104B1344FA7911010E4A0A441278D2B222F00102D2B21A7095
:40398000FB791A01094B1344FA791101074A0A441278D2B222F02002D2B21A700023FB60FB6818461437BD4680BC70471070004080B485B000AF0346FB710123FB60FB7959
:4039C000172B1DD8FB791A01104B1344FA7911010E4A0A441279D2B242F00402D2B21A71FB791A01094B1344FA791101074A0A441278D2B242F00102D2B21A700023FB60A1
:403A0000FB6818461437BD4680BC70471070004080B485B000AF03460A46FB711346BB710123FB60FB79172B1BD8FB791A01104B13441B78DBB223F00E03FB72FB791A0179
:403A40000B4B1344BA795200D2B252B202F00E0251B297F90B200A4352B2D2B21A700023FB60FB6818461437BD4680BC704700BF1070004080B485B000AF0346FB710B4650
:403A8000BB8013467B800123FB60BB8841F6FF72934202D14FF40053BB807B8841F6FF72934202D14FF400537B80FB79172B17D8FB79DB0003F1804303F5EC430433BB608C
:403AC000BB68BA881A80FB79DB0003F1804303F5EC430633BB60BB687A881A800023FB60FB6818461437BD4680BC704780B485B000AF03460A46FB711346BB710123FB60E6
:403B0000FB79172B07D8FB791A01064B1344BA795A720023FB60FB6818461437BD4680BC704700BF1070004090B484B000AF0446084611461A462346FB710346BB710B46AA
:403B40007B7113463B710123FB60FB79172B34D8FB79DB0003F1804303F5EC43BA7902F07F02D1B27A79D201D2B20A43D2B21A70FB79DB0003F1804303F5EC433A7E120120
:403B8000D1B23A7902F00F02D2B20A43D2B25A70FB79DB0003F1804303F5EC433A7F02F00F02D2B29A70FB79DB0003F1804303F5EC430022DA700023FB60FB681846103717
:403BC000BD4690BC704700BF80B582B000AFFF23FB7100F06DF90346BB71104B1B78182B12D90F4B1B78FB710C4B1B78013BDAB20A4B1A70FB79DB0003F1804303F5F0435A
:403C00001B78DAB2064B1A70BB79184600F054F9FB7918460837BD4680BD00BFF080FF1FF180FF1F90B484B000AF0446084611461A462346FB710346BB800B46BB711346E9
:403C4000FB700123FB6097F90730002B23DBBB8823F47F6323F00F039BB2002B1BD1FB79DB0003F1804303F5F043BB60BB68BA881A80FB79DB0003F1804303F5F043BA79F6
:403C80009A70FB79DB0003F1804303F5F043FA78DA700023FB60FB6818461037BD4690BC704700BF80B485B000AF0346FB710B46BB8013467B800123FB6097F90730002BA4
:403CC00017DBFB79DB0003F1804303F5F0430433BB60BB68BA881A80FB79DB0003F1804303F5F0430633BB60BB687A881A800023FB60FB6818461437BD4680BC704700BFCD
:403D000080B483B000AF0346FB7101BE00BF0C37BD4680BC704700BF80B582B000AF0346FB80FB88054A127802FB03F3184600F0B7F800BF0837BD4680BD00BF0081FF1F80
:403D400080B584B000AF03463960FB710F4B1B68FB60FB791F2B02D90020FFF7D1FFFB7903F01F0310339B00FA6813441B68BB60FB7903F01F0310339B00FA6813443A68A6
:403D80001A60BB6818461037BD4680BD08ED00E080B582B000AF03460A46FB711346BB71BB79072B02D90020FFF7AAFFFB791F2B02D90020FFF7A4FFFB7903F01F0303F13D
:403DC000604303F56443BA795201D2B21A7000BF0837BD4680BD00BF80B483B000AF7860264B1B78DBB21A467B681A60244B1B78DBB21B027A6812681A437B681A60214B86
:403E00001B78DBB21B047A6812681A437B681A601D4B1B78DBB21B067A6812681A437B681A607B680433194A1278D2B21A60184B1B78DBB21A027B68043379680431096829
:403E40000A431A60134B1B78DBB21A047B6804337968043109680A431A600F4B1B78DBB21A067B6804337968043109680A431A6000BF0C37BD4680BC704700BF0301004971
:403E800004010049EC4600400201004901010049000100490501004906010049000000000230800803D000BF01380046FCD17047EFF3108072B6704780F31088704700BFA1
:403EC00080B582B000AF0023BB711B4B1B78DBB203F00303012B02D0022B04D012E0164B1B79FB7111E0144B1B79DBB203F07F02124913465B0013449B000B440A331B7887
:403F0000FB7102E00023FB7100BFFB79022B0ED80B4B1A68FB7913441B78022B04D1FDF76BF80346BB7102E00023BB7100BFBB7918460837BD4680BD006000408C82FF1F8D
:403F40008082FF1F014B1868704700BF6881FF1F0E4B70B51E460E4C0025E41AA410A54204D056F8253098470135F8E700F02CF9084B094C1E46E41AA4100025A54204D0C0
:403F800056F8253098470135F8E770BDD4410000D4410000D4410000DC41000010B5431E0A44914204D011F8014B03F8014FF8E710BD03460244934202D003F8011BFAE74C
:403FC0007047000000000000035B00402443004040000000205100405000C0510040100000000140001000140140000800400140000A004C014000020050014020000000AA
:40400000000404040000000000000000303132333435363738394142434445460000000012010002EF020108B40432F2010001028001000009024B000201018032080B0043
:4040400002EF020100090400000102020103052400100104240202052406000105240100010705810308000A09040100020A00000407058202400000070503024000000094
:40408000040309042C0343007900700072006500730073002000530065006D00690063006F006E0064007500630074006F007200100355005300420055004100520054001C
:4040C0003803430044004300200043006F006D006D0075006E00690063006100740069006F006E00200049006E0074006500720066006100630065002603430044004300A1
:4041000020004400610074006100200049006E00740065007200660061006300650000000203000000008103080002000100820240000A000100030240000A00020A000076
:404140000100000034400000030000002441000000000000000000000000000000000000000000003C41000001000000204000000000000000000000010000004041000002
:40418000010000006841000012034D0053004600540031003000300001000000280000000001040001000000000000000001435955534200000030303030310000000000CE
:4041C0000000000043000000F8B500BFF8BC08BC9E4670474D00000061060000F8B500BFF8BC08BC9E4670472900000000420000C880FF1FA8000000B80100000000000098
:40420000000000000C00000000C2010000000800C201000000080000A1200000000002000000FF01FFFFFFFF807F00000704000000366E01C05D0000180000000000E02E2B
:404240000000000000000000000000000000000000000000000000000000000000000000C44100000000000000000000000000000000000000000000000000000000000039
:4042800000000000000000000000000000000000000000000000000000000000000000000881FF1F0000000000000000000000000000000000000000000000000000000057
:4042C00000000000000000000000000000000000000000000000000000000000000000000000000000000000000000000000000000000000000000000000000000000000BE
:40430000000000000000000000000000000000000000000000000000000000000000000000000000000000000000000000000000000000000000000000000000000000007D
:40434000000000000000000000000000000000000000000000000000000000000000000000000000000000000000000000000000000000000000000000000000000000003D
:4043800000000000000000000000000000000000000000000000000000000000000000000000000000000000000000000000000000000000000000000000000000000000FD
:020000040003F7
:0200000480007A
:400000000145004001520040026400400101014003030140010501400107014002090140060A01400E0B01400D0C0140110D0140010F014001170140011901400B400140A6
:400040000C41014007420140044301400344014007450140054601400847014003480140034C014003500140035101407E027C408C038D7FE204E602EC24EE01EE08EC40A4
:40008000B708EC4056085B045D90D608DB04DD9059025B286082611464616520884899029B209CAB9D34AE02D607D8FF540356045B045D905F01B802BE01D47FD604D80481
:4000C000DB04DD90DF011A80588159145C405D20606A66028E4099029B20A902B320D63FD88FE602EC20EE01E204E480E480128116803002338036113B408002C470CCF0B8
:40010000CE10E2201140874097409A01A610A780AA81B280C440E640EC20EE804F409A01A940AB80AE10D220EE1013409740B601C4407C108240DE0184808C10941096405F
:40014000A710AB10E008462096409C80A710D00108800A400F2096409C809E20A710C20E25208920C8208A209E20E40101010D010F0100AF010212200000000000000400E2
:400180004000000000000000C0000000000B0B0000000000BB001801000A000000010000000200000000000000000000000000000000000000000000000000000000000048
:4001C00000000000000000000000000000000000000000000000000000000000000000000000000000000000000000000000000000000000000000000000000000000000FF
:4002000000000000000000000000000000000000000000000000000000000000000000000000000000000000000000000000000000000000000000000000000000000000BE
:40024000000000000000000000000000000000000000000000000000000000000000000000000000000000000000000000000000000000000000000000000000000000007E
:40028000000000000000000000000000000000000000000000000000000000000000000000000000000000000000000000000000000000000000000000000000000000003E
:0200000490006A
:0400000000004005B7
:0200000490105A
:04000000BC90ACAF55
:0200000490303A
:020000001734B3
:0200000490402A
:4000000000000000000000000000000000000000000000000000000000000000000000000000000000000000000000000000000000000000000000000000000000000000C0
:400040000000000000000000000000000000000000000000000000000000000000000000000000000000000000000000000000000000000000000000000000000000000080
:400080000000000000000000000000000000000000000000000000000000000000000000000000000000000000000000000000000000000000000000000000000000000040
:4000C0000000000000000000000000000000000000000000000000000000000000000000000000000000000000000000000000000000000000000000000000000000000000
:0200000490501A
:0C00000000012E12306900012E2B479DDC
:00000001FF